:020000040000FA
:0200000039289D
:100008007E1480310B1C23282700931D23288B1175
:1000180020002908031D20280130F0007008A900DD
:100028000130F0007008B8070A303802031C202895
:100038000130F0007008B800270093118B152000DC
:10004800111C372818100130F0007008FD0709301E
:100058007D02031C33280130F0007008FD00F921EF
:100068002000111018147E1009003A282123B4002A
:100078002223B5002323B6002423B700A001A10141
:10008800A201A301A401A501A601A701A801A90134
:10009800AA017E1020005028F03021009900083075
:1000A8008C0023008C01083024008C00210095135B
:1000B8000C230B172700921548308B004430200082
:1000C800980021001114200018148B172000290310
:1000D800031DCF2900305722AA0113302000B30096
:1000E8004430B2004430890B7728B20B7728B30B21
:1000F800772800002000A901EC2918103F302100C2
:100108008C006300EC291814FF305722EC291814CE
:10011800FC305722EC29181403305722EC29181404
:1001280005302A0203189A288230572205302A02FD
:10013800031CA4280A302A020318A4284130572295
:100148000A302A02031CAE280F302A020318AE28F0
:10015800223057220F302A02031CB82814302A02F2
:100168000318B8281130572214302A02031CC22859
:1001780019302A020318C2280A30572219302A02D5
:10018800031CCC281E302A020318CC28053057221D
:100198000130B2003208AA071E302A02031CEC29DB
:1001A800AA01EC29181405302A020318DD280530A5
:1001B800572205302A02031CE7280A302A020318AE
:1001C800E7280A3057220A302A02031CF1280F3088
:1001D8002A020318F128113057220F302A02031C73
:1001E800FB2814302A020318FB2822305722143027
:1001F8002A02031C052919302A020318052941304F
:10020800572219302A02031CCC281E302A02031850
:10021800CC288230CB28181405302A020318162956
:100228000730572205302A02031C20290A302A02E7
:10023800031820290B3057220A302A02031C2A29C6
:100248000F302A0203182A29133057220F302A02A6
:10025800031C342914302A02031834292330572266
:1002680014302A02031C3E2919302A0203183E2999
:100278004330572219302A02031C48291E302A020B
:1002880003184829803057221E302A02031C52299D
:1002980023302A02031852298330572223302A0296
:1002A800031C5C2928302A0203185C294330572292
:1002B80028302A02031C66292D302A0203186629D1
:1002C800233057222D302A02031C702932302A028B
:1002D800031870291330572232302A02031C7A2956
:1002E80037302A0203187A290B30572237302A026E
:1002F800031C84293C302A0203188429043057221D
:100308002A08023EB2003208AA003C30D12818144C
:1003180004302A02031892293330572204302A0263
:10032800031C9C2908302A0203189C2948305722AC
:1003380008302A02031CA6290C302A020318A62911
:10034800863057220C302A02031CB02910302A02AA
:100358000318B0298530572210302A02031CBA2905
:1003680014302A020318BA294B30572214302A02B3
:10037800031CC42918302A020318C4293030572214
:100388000130B2003208AA071830D1281814A52263
:100398002B085722EC293808013A03198128033A17
:1003A80003198728013A03198B28073A03198F285C
:1003B800013A03199328033A0319D628013A031975
:1003C8000F290F3A03198B29013A0319CA29EC2975
:1003D80003302000B3000830B2007730890BF229CF
:1003E800B20BF229B30BF2296A287D08203E860059
:1003F800870101030319392A532A2B3021008C0065
:10040800043022008C0008000F3021008C001030CE
:1004180022008C0008002B3021008C0010302200B4
:100428008C0008000F3021008C00203022008C0046
:1004380008001B3021008C00043022008C000800CA
:100448001B3021008C00203022008C0008003C303A
:1004580021008C00013022008C0008003C30210073
:100468008C00023022008C0008007D08013A031934
:10047800012A033A0319082A013A03190F2A073AED
:100488000319162A013A03191D2A033A0319242AC3
:10049800013A03192B2A0F3A0319322A562A3F30F8
:1004A80021008C000800F30073080139F10071087D
:1004B800A80073360139F1007108A7007308F1002C
:1004C8000230F136890B652A71080139F200720889
:1004D800A6007308F1000330F136890B702A710801
:1004E8000139F2007208A5007308F1000430F136F2
:1004F800890B7B2A71080139F2007208A40073087D
:10050800F1000530F136890B862A71080139F200AD
:100518007208A3007308F1000630F136890B912A9E
:1005280071080139F2007208A2007308F10007305F
:10053800F136890B9C2A71080139F2007208A10072
:1005480008003708F4003608F3003508F2003408CC
:10055800F1004130F800C630F7004E30F6006D303B
:10056800F500DD227408B7007308B6007208B500FC
:100578007108B4003930B4073030B53D0030B63DAD
:100588000030B73D3408AD003508AE003608AF007E
:100598003708B0001030B100B037AF0CAE0CAD0C5E
:1005A800B10BD02AFF302D05AB007F302E05AC00F3
:1005B80008000030FC000030FB000030FA0000307A
:1005C800F900711CEF2A7508F9077608FA3D7708D3
:1005D800FB3D7808FC3D0130F535F60DF70DF80DBB
:1005E800890BF02A0130F436F30CF20CF10C890B6C
:1005F800F72A7408730472047104031DE52A7C0841
:10060800F4007B08F3007A08F2007908F10008008A
:100618000130F1007108FD000230F100710820007E
:10062800B800AA01A901A001A101A201A301A40186
:10063800A501A601A701A80108000134003400346F
:0206480000347C
:020000040001F9
:04000E0084CFFFDFBD
:00000001FF
